{
  "contractName": "Election",
  "abi": [
    {
      "constant": true,
      "inputs": [],
      "name": "candidatesCount",
      "outputs": [
        {
          "name": "",
          "type": "uint256"
        }
      ],
      "payable": false,
      "stateMutability": "view",
      "type": "function",
      "signature": "0x2d35a8a2"
    },
    {
      "constant": true,
      "inputs": [
        {
          "name": "",
          "type": "uint256"
        }
      ],
      "name": "candidates",
      "outputs": [
        {
          "name": "id",
          "type": "uint256"
        },
        {
          "name": "name",
          "type": "string"
        },
        {
          "name": "partyName",
          "type": "string"
        },
        {
          "name": "voteCount",
          "type": "uint256"
        }
      ],
      "payable": false,
      "stateMutability": "view",
      "type": "function",
      "signature": "0x3477ee2e"
    },
    {
      "constant": true,
      "inputs": [
        {
          "name": "",
          "type": "address"
        }
      ],
      "name": "voters",
      "outputs": [
        {
          "name": "",
          "type": "bool"
        }
      ],
      "payable": false,
      "stateMutability": "view",
      "type": "function",
      "signature": "0xa3ec138d"
    },
    {
      "anonymous": false,
      "inputs": [
        {
          "indexed": false,
          "name": "id",
          "type": "uint256"
        },
        {
          "indexed": false,
          "name": "name",
          "type": "string"
        },
        {
          "indexed": false,
          "name": "partyName",
          "type": "string"
        },
        {
          "indexed": false,
          "name": "voteCount",
          "type": "uint256"
        }
      ],
      "name": "candidateAdded",
      "type": "event",
      "signature": "0x17bc805fb174d4601852f5b3f96a5b177001033d842d9415e71347b182bf4c3b"
    },
    {
      "anonymous": false,
      "inputs": [
        {
          "indexed": false,
          "name": "id",
          "type": "uint256"
        },
        {
          "indexed": false,
          "name": "name",
          "type": "string"
        },
        {
          "indexed": false,
          "name": "partyName",
          "type": "string"
        },
        {
          "indexed": false,
          "name": "voteCount",
          "type": "uint256"
        }
      ],
      "name": "votedEvent",
      "type": "event",
      "signature": "0xd18b4174e1a70ec23f5424d203586a51f881bc6ea0f70e9a8cfc52f1b1b21c2b"
    },
    {
      "constant": false,
      "inputs": [
        {
          "name": "_name",
          "type": "string"
        },
        {
          "name": "_party",
          "type": "string"
        },
        {
          "name": "_admin",
          "type": "address"
        }
      ],
      "name": "addCandidate",
      "outputs": [],
      "payable": false,
      "stateMutability": "nonpayable",
      "type": "function",
      "signature": "0x0b32ff77"
    },
    {
      "constant": false,
      "inputs": [
        {
          "name": "_candidateId",
          "type": "uint256"
        }
      ],
      "name": "vote",
      "outputs": [],
      "payable": false,
      "stateMutability": "nonpayable",
      "type": "function",
      "signature": "0x0121b93f"
    }
  ],
  "bytecode": "0x608060405234801561001057600080fd5b50610e80806100206000396000f3fe60806040526004361061006d576000357c0100000000000000000000000000000000000000000000000000000000900463ffffffff1680630121b93f146100725780630b32ff77146100ad5780632d35a8a21461022c5780633477ee2e14610257578063a3ec138d14610385575b600080fd5b34801561007e57600080fd5b506100ab6004803603602081101561009557600080fd5b81019080803590602001909291905050506103ee565b005b3480156100b957600080fd5b5061022a600480360360608110156100d057600080fd5b81019080803590602001906401000000008111156100ed57600080fd5b8201836020820111156100ff57600080fd5b8035906020019184600183028401116401000000008311171561012157600080fd5b91908080601f016020809104026020016040519081016040528093929190818152602001838380828437600081840152601f19601f8201169050808301925050505050505091929192908035906020019064010000000081111561018457600080fd5b82018360208201111561019657600080fd5b803590602001918460018302840111640100000000831117156101b857600080fd5b91908080601f016020809104026020016040519081016040528093929190818152602001838380828437600081840152601f19601f820116905080830192505050505050509192919290803573ffffffffffffffffffffffffffffffffffffffff1690602001909291905050506108d3565b005b34801561023857600080fd5b50610241610c00565b6040518082815260200191505060405180910390f35b34801561026357600080fd5b506102906004803603602081101561027a57600080fd5b8101908080359060200190929190505050610c06565b604051808581526020018060200180602001848152602001838103835286818151815260200191508051906020019080838360005b838110156102e05780820151818401526020810190506102c5565b50505050905090810190601f16801561030d5780820380516001836020036101000a031916815260200191505b50838103825285818151815260200191508051906020019080838360005b8381101561034657808201518184015260208101905061032b565b50505050905090810190601f1680156103735780820380516001836020036101000a031916815260200191505b50965050505050505060405180910390f35b34801561039157600080fd5b506103d4600480360360208110156103a857600080fd5b81019080803573ffffffffffffffffffffffffffffffffffffffff169060200190929190505050610d66565b604051808215151515815260200191505060405180910390f35b600160003373ffffffffffffffffffffffffffffffffffffffff1673ffffffffffffffffffffffffffffffffffffffff16815260200190815260200160002060009054906101000a900460ff161515156104d6576040517f08c379a00000000000000000000000000000000000000000000000000000000081526004018080602001828103825260218152602001807f796f75206861766520616c72656164792063617374656420796f757220766f7481526020017f650000000000000000000000000000000000000000000000000000000000000081525060400191505060405180910390fd5b6000811180156104e857506000548111155b151561055c576040517f08c379a00000000000000000000000000000000000000000000000000000000081526004018080602001828103825260168152602001807f63616e646964617465206973206e6f742076616c69640000000000000000000081525060200191505060405180910390fd5b60018060003373ffffffffffffffffffffffffffffffffffffffff1673ffffffffffffffffffffffffffffffffffffffff16815260200190815260200160002060006101000a81548160ff0219169083151502179055506105bb610d86565b600260008381526020019081526020016000206080604051908101604052908160008201548152602001600182018054600181600116156101000203166002900480601f01602080910402602001604051908101604052809291908181526020018280546001816001161561010002031660029004801561067d5780601f106106525761010080835404028352916020019161067d565b820191906000526020600020905b81548152906001019060200180831161066057829003601f168201915b50505050508152602001600282018054600181600116156101000203166002900480601f01602080910402602001604051908101604052809291908181526020018280546001816001161561010002031660029004801561071f5780601f106106f45761010080835404028352916020019161071f565b820191906000526020600020905b81548152906001019060200180831161070257829003601f168201915b5050505050815260200160038201548152505090506001816060015101816060018181525050806002600084815260200190815260200160002060008201518160000155602082015181600101908051906020019061077f929190610daf565b50604082015181600201908051906020019061079c929190610daf565b50606082015181600301559050507fd18b4174e1a70ec23f5424d203586a51f881bc6ea0f70e9a8cfc52f1b1b21c2b82826020015183604001518460600151604051808581526020018060200180602001848152602001838103835286818151815260200191508051906020019080838360005b8381101561082b578082015181840152602081019050610810565b50505050905090810190601f1680156108585780820380516001836020036101000a031916815260200191505b50838103825285818151815260200191508051906020019080838360005b83811015610891578082015181840152602081019050610876565b50505050905090810190601f1680156108be5780820380516001836020036101000a031916815260200191505b50965050505050505060405180910390a15050565b60008351111515610927576040517f08c379a0000000000000000000000000000000000000000000000000000000008152600401808060200182810382526000815260200160200191505060405180910390fd5b6000825111151561097b576040517f08c379a0000000000000000000000000000000000000000000000000000000008152600401808060200182810382526000815260200160200191505060405180910390fd5b8073ffffffffffffffffffffffffffffffffffffffff163373ffffffffffffffffffffffffffffffffffffffff16141515610a44576040517f08c379a00000000000000000000000000000000000000000000000000000000081526004018080602001828103825260298152602001807f6f6e6c792061646d696e206163636f756e742063616e2061646420746865206381526020017f616e64696461746573000000000000000000000000000000000000000000000081525060400191505060405180910390fd5b6000808154809291906001019190505550608060405190810160405280600054815260200184815260200183815260200160008152506002600080548152602001908152602001600020600082015181600001556020820151816001019080519060200190610ab4929190610daf565b506040820151816002019080519060200190610ad1929190610daf565b50606082015181600301559050507f17bc805fb174d4601852f5b3f96a5b177001033d842d9415e71347b182bf4c3b60005484846000604051808581526020018060200180602001848152602001838103835286818151815260200191508051906020019080838360005b83811015610b57578082015181840152602081019050610b3c565b50505050905090810190601f168015610b845780820380516001836020036101000a031916815260200191505b50838103825285818151815260200191508051906020019080838360005b83811015610bbd578082015181840152602081019050610ba2565b50505050905090810190601f168015610bea5780820380516001836020036101000a031916815260200191505b50965050505050505060405180910390a1505050565b60005481565b6002602052806000526040600020600091509050806000015490806001018054600181600116156101000203166002900480601f016020809104026020016040519081016040528092919081815260200182805460018160011615610100020316600290048015610cb85780601f10610c8d57610100808354040283529160200191610cb8565b820191906000526020600020905b815481529060010190602001808311610c9b57829003601f168201915b505050505090806002018054600181600116156101000203166002900480601f016020809104026020016040519081016040528092919081815260200182805460018160011615610100020316600290048015610d565780601f10610d2b57610100808354040283529160200191610d56565b820191906000526020600020905b815481529060010190602001808311610d3957829003601f168201915b5050505050908060030154905084565b60016020528060005260406000206000915054906101000a900460ff1681565b608060405190810160405280600081526020016060815260200160608152602001600081525090565b828054600181600116156101000203166002900490600052602060002090601f016020900481019282601f10610df057805160ff1916838001178555610e1e565b82800160010185558215610e1e579182015b82811115610e1d578251825591602001919060010190610e02565b5b509050610e2b9190610e2f565b5090565b610e5191905b80821115610e4d576000816000905550600101610e35565b5090565b9056fea165627a7a723058205d923566f00d646d7fc424a9d460dbf0600b407175c3dc2a5d57ee2bd13c71590029",
  "source": "pragma solidity ^0.5.0;\n\ncontract Election {\n\n  uint public candidatesCount;\n\n  mapping(address => bool) public voters;\n  mapping(uint => Candidate) public candidates;\n\n  struct Candidate {\n      uint id;\n      string name;\n      string partyName;\n      uint voteCount;\n  }\n\n  event candidateAdded(uint id, string name, string partyName, uint voteCount);\n  event votedEvent(uint id, string name, string partyName, uint voteCount);\n\n  function addCandidate(string memory _name, string memory _party, address  _admin) public {\n      require(bytes(_name).length > 0, '');\n      require(bytes(_party).length > 0, '');\n      require(msg.sender == _admin, 'only admin account can add the candidates');\n      candidatesCount ++;\n      candidates[candidatesCount] = Candidate(candidatesCount, _name, _party, 0);\n      emit candidateAdded(candidatesCount, _name, _party, 0);\n  }\n\n  function vote(uint _candidateId) public {\n      require(!voters[msg.sender], \"you have already casted your vote\");\n      require(_candidateId > 0 && _candidateId <= candidatesCount, \"candidate is not valid\");\n      voters[msg.sender] = true;\n      Candidate memory _candidate = candidates[_candidateId];\n      _candidate.voteCount = _candidate.voteCount + 1;\n      candidates[_candidateId] = _candidate;\n      emit votedEvent(_candidateId, _candidate.name, _candidate.partyName,_candidate.voteCount);\n  }\n}",
  "sourcePath": "/home/pavansoratur/Github/Dappoll/src/contracts/Election.sol",
  "compiler": {
    "name": "solc",
    "version": "0.5.0+commit.1d4f565a.Emscripten.clang"
  },
  "schemaVersion": "3.0.2",
  "updatedAt": "2020-05-25T03:34:36.458Z",
  "devdoc": {
    "methods": {}
  },
  "userdoc": {
    "methods": {}
  }
}